:04000000FEEF7FF0A0
:10FF7E001200C0821200C09212000001D1EF7FF079
:10FF8E0004011093C082C8921200C7EC7FF0BFEC40
:10FF9E007FF01200CCEC7FF0C2EC7FF0000E026E10
:10FFAE00640E016EE7EC7FF0C0EC7FF0030E026E84
:10FFBE00E80E016EE7EC7FF0D3EF7FF0FEEF7FF0FF
:10FFCE00F1EF7FF0150E036EC60EE82EFED7032E50
:10FFDE00FCD700D00106D8A0020601500210D8A40A
:10FFEE00FBEF7FF0FDEF7FF0E9EF7FF01200C4EF43
:02FFFE007FF092
:020000040020DA
:10000000FF0FFF0FFF0FFF0FFF0FFF0FFF0FFF0F80
:10001000FF0FFF0FFF0FFF0FFF0FFF0FFF0FFF0F70
:10002000FF0FFF0FFF0FFF0FFF0FFF0FFF0FFF0F60
:10003000FF0FFF0FFF0FFF0FFF0FFF0FFF0FFF0F50
:020000040030CA
:0A0000008CFFFFFF9FFFFFFFFFFFD3
:00000001FF
